:020000040000fa
:080000000002040000000000f2
:020000040000fa
:0400080018290000b3
:020000040000fa
:04000c001a290000ad
:020000040000fa
:040010001c290000a7
:020000040000fa
:040014001e290000a1
:020000040000fa
:04001800202900009b
:020000040000fa
:04001c002229000095
:020000040000fa
:04002000242900008f
:020000040000fa
:04002400e0020000f6
:020000040000fa
:04002800e0020000f2
:020000040000fa
:04002c00e0020000ee
:020000040000fa
:04003000e0020000ea
:020000040000fa
:04003400c6280000da
:020000040000fa
:04003800e0020000e2
:020000040000fa
:04003c00e0020000de
:020000040000fa
:04004000e0020000da
:020000040000fa
:04004400e0020000d6
:020000040000fa
:04004800e0020000d2
:020000040000fa
:04004c00e0020000ce
:020000040000fa
:04005000e0020000ca
:020000040000fa
:04005400e0020000c6
:020000040000fa
:04005800e0020000c2
:020000040000fa
:04005c00e0020000be
:020000040000fa
:04006000e0020000ba
:020000040000fa
:04006400e0020000b6
:020000040000fa
:04006800e0020000b2
:020000040000fa
:04006c00e0020000ae
:020000040000fa
:04007000e0020000aa
:020000040000fa
:04007400e0020000a6
:020000040000fa
:04007800e0020000a2
:020000040000fa
:04007c00e00200009e
:020000040000fa
:04008000e00200009a
:020000040000fa
:04008400e002000096
:020000040000fa
:04008800e002000092
:020000040000fa
:04008c00e00200008e
:020000040000fa
:04009000e00200008a
:020000040000fa
:04009400e002000086
:020000040000fa
:04009800e002000082
:020000040000fa
:04009c00e00200007e
:020000040000fa
:0400a000e00200007a
:020000040000fa
:0400a400e002000076
:020000040000fa
:0400a800e002000072
:020000040000fa
:0400ac00e00200006e
:020000040000fa
:0400b000e00200006a
:020000040000fa
:0400b400e002000066
:020000040000fa
:0400b800e002000062
:020000040000fa
:0400bc00e00200005e
:020000040000fa
:0400c000e00200005a
:020000040000fa
:0400c400e002000056
:020000040000fa
:0400c800e002000052
:020000040000fa
:0400cc00e00200004e
:020000040000fa
:0400d000e00200004a
:020000040000fa
:0400d400e002000046
:020000040000fa
:0400d800e002000042
:020000040000fa
:0400dc00e00200003e
:020000040000fa
:0400e000e00200003a
:020000040000fa
:0400e400e002000036
:020000040000fa
:0400e800e002000032
:020000040000fa
:0400ec00e00200002e
:020000040000fa
:0400f000e00200002a
:020000040000fa
:0400f400e002000026
:020000040000fa
:0400f800e002000022
:020000040000fa
:0400fc00e00200001e
:020000040000fa
:04010000e002000019
:020000040000fa
:04010400e002000015
:020000040000fa
:04010800e002000011
:020000040000fa
:04010c00e00200000d
:020000040000fa
:04011000e002000009
:020000040000fa
:04011400e002000005
:020000040000fa
:04011800e002000001
:020000040000fa
:04011c00e0020000fd
:020000040000fa
:04012000e0020000f9
:020000040000fa
:04012400e0020000f5
:020000040000fa
:04012800e0020000f1
:020000040000fa
:04012c00e0020000ed
:020000040000fa
:04013000e0020000e9
:020000040000fa
:04013400e0020000e5
:020000040000fa
:04013800e0020000e1
:020000040000fa
:04013c00e0020000dd
:020000040000fa
:04014000e0020000d9
:020000040000fa
:04014400e0020000d5
:020000040000fa
:04014800e0020000d1
:020000040000fa
:04014c00e0020000cd
:020000040000fa
:04015000e0020000c9
:020000040000fa
:04015400e0020000c5
:020000040000fa
:04015800e0020000c1
:020000040000fa
:04015c00e0020000bd
:020000040000fa
:04016000e0020000b9
:020000040000fa
:04016400e0020000b5
:020000040000fa
:04016800e0020000b1
:020000040000fa
:04016c00e0020000ad
:020000040000fa
:04017000e0020000a9
:020000040000fa
:04017400e0020000a5
:020000040000fa
:04017800e0020000a1
:020000040000fa
:04017c00e00200009d
:020000040000fa
:04018000e024000077
:020000040000fa
:04018400e002000095
:020000040000fa
:04018800e002000091
:020000040000fa
:04018c00e00200008d
:020000040000fa
:04019000e002000089
:020000040000fa
:04019400e002000085
:020000040000fa
:04019800e002000081
:020000040000fa
:04019c00e00200007d
:020000040000fa
:0401a000e002000079
:020000040000fa
:0401a400e002000075
:020000040000fa
:0401a800e002000071
:020000040000fa
:0401ac00e00200006d
:020000040000fa
:0401b000e002000069
:020000040000fa
:0401b400e002000065
:020000040000fa
:0401b800e002000061
:020000040000fa
:0401bc00e00200005d
:020000040000fa
:0401c000e002000059
:020000040000fa
:0401c400e002000055
:020000040000fa
:0401c800e002000051
:020000040000fa
:0401cc00e00200004d
:020000040000fa
:0401d000e002000049
:020000040000fa
:0401d400e002000045
:020000040000fa
:0401d800e002000041
:020000040000fa
:0401dc00e00200003d
:020000040000fa
:0401e000e002000039
:020000040000fa
:0401e400e002000035
:020000040000fa
:0401e800e002000031
:020000040000fa
:0401ec00e00200002d
:020000040000fa
:0401f000e002000029
:020000040000fa
:0401f400e002000025
:020000040000fa
:0401f800e002000021
:020000040000fa
:0401fc00e00200001d
:020000040000fa
:04020000e002000018
:020000040000fa
:04020400e002000014
:020000040000fa
:04020800e002000010
:020000040000fa
:04020c00e00200000c
:020000040000fa
:04021000e002000008
:020000040000fa
:04021400e002000004
:020000040000fa
:04021800e002000000
:020000040000fa
:04021c00e0020000fc
:020000040000fa
:04022000e0020000f8
:020000040000fa
:04022400e0020000f4
:020000040000fa
:04022800e0020000f0
:020000040000fa
:04022c00e0020000ec
:020000040000fa
:04023000e0020000e8
:020000040000fa
:04023400e0020000e4
:020000040000fa
:04023800e0020000e0
:020000040000fa
:04023c00e0020000dc
:020000040000fa
:04024000e0020000d8
:020000040000fa
:04024400e0020000d4
:020000040000fa
:04024800e0020000d0
:020000040000fa
:04024c00e0020000cc
:020000040000fa
:04025000e0020000c8
:020000040000fa
:04025400e0020000c4
:020000040000fa
:04025800e0020000c0
:020000040000fa
:04025c00e0020000bc
:020000040000fa
:04026000e0020000b8
:020000040000fa
:04026400e0020000b4
:020000040000fa
:10040000af9523000eff2d000e01880000000000b4
:10041000000020000000e000020032000001200087
:10042000200288000c000700402e20000100200060
:100430000f000700000020000000e0000200320072
:1004400000000200000000000c2902000000000073
:100450000040da000000fe00200020000000e00064
:100460000200320010002000900188000000060009
:10047000a1028800800078000000eb001a0037001d
:10048000e280400054a0b4009101ba00e280400034
:1004900054a0b4009102ba00e280400054a0b4001d
:1004a0000002eb00472bde00f507b200a601880032
:1004b000602ce10008003a000049eb000201e8006e
:1004c000020039003420ec0002f0a0008301e900b2
:1004d000f9ff3e00040037006128e100010032000e
:1004e0000082eb000b00070011c3ba001101ba0033
:1004f0000604e00003003a000200e000e0ff3a00da
:1005000000000600f607b200a6028800820078000c
:10051000f5ff370004d0a300e20f49001c003900aa
:10052000810278003549ba000201e8000200390072
:100530003420ec0002f0a0008301e9000f0032003b
:100540002549ba000201e800020039003420ec001d
:1005500002f0a0008301e900080032000400e0007e
:100560000600320015c9ba000201e8000200390095
:100570003420ec0002f0a0008301e9008180e80053
:1005800054a0b4000300e000e2ff3a0000000600bf
:100590009102ba00055978008301e900f7ff3200a3
:1005a000c82ade00055978008301e900f3ff320014
:1005b0000400e000f1ff320011d9ba00eeff37006d
:0805c0000040da000000fe001b
:020000040000fa
:1005c8007c1300000400000082000000000000000e
:1005d80000000000801300001000000082000000ee
:1005e8000000000000000000000000000000000003
:1005f8000000000000000000761300000600000064
:10060800820000008013800013000000081300001f
:10061800240000008200000000000000000000002c
:1006280000000000000000000000000000000000c2
:1006380000000000000000000000000000000000b2
:100648000000000000000000001000000002000090
:1006580082000000800040000000200000008000b0
:1006680000400000402000000000000000000000e2
:100678000000000000000000000000000000000072
:10068800000800000034000000000000080000001e
:1006980034000000000008000000300000000000e6
:1006a80000080000003000000000000040000000ca
:1006b8002c0000000000400000002c00000000009a
:1006c800004000000028000000000000400000007a
:1006d8002800000080004000000023000000800087
:1006e80000400000402300000000000000008000df
:1006f800230000000000000000c02300000080006c
:10070800004000000024000000800000400040007d
:100718002400000000000000008024000000000009
:1007280000000000c024000000800000400000001d
:100738002500000080004000004025000000000067
:100748000000000080250000000000000000c0003c
:100758002500000080004000000026000000800006
:10076800004000004026000000000000000080005b
:10077800260000000000000000c0260000008000e5
:1007880000400000002700000080000040004000fa
:100798002700000000000000008027000000000083
:1007a80000000000c027000000800000400000009a
:1007b80028000000800040000040280000000000e1
:1007c8000000000080280000000000000000c000b9
:1007d8002800000080004000000029000000800080
:1007e80000400000402900000000000000008000d8
:1007f800290000000000000000c02900000080005f
:1008080000400000002a0000008000004000400076
:100818002a0000000000000000802a0000000000fc
:1008280000000000c02a0000008000004000000016
:100838002b0000008000400000402b00000000005a
:1008480000000000802b0000000000000000c00035
:100858002b0000008000400000002c0000008000f9
:1008680000400000402c0000000000000000800054
:100878002c0000000000000000c02c0000008000d8
:1008880000400000002d00000080000040004000f3
:100898002d0000000000000000802d000000000076
:1008a80000000000c02d0000008000004000000093
:1008b8002e0000008000400000402e0000000000d4
:1008c80000000000802e0000000000000000c000b2
:1008d8002e0000008000400000002f000000800073
:1008e80000400000402f00000000000000008000d1
:1008f8002f0000000000000000c02f0000000000d2
:100908000028000000040000820000000000000031
:1009180000000000000000000000000000000000cf
:1009280000000000000000000000000000000000bf
:1009380000000000000000000000000000000000af
:10094800000000000000000000000000000000009f
:100e680000000000002c00000004000082000000c8
:100e7800000000000000000000000000000000006a
:100e8800000000000000000000000000000000005a
:100e9800000000000000000000000000000000004a
:100ea800000000000000000000000000000000003a
:1013c80000000000000000000026000000020000ed
:1013d8008200000000000000000000000000000083
:1013e80000000000000000000000000000000000f5
:1013f80000000000000000000000000000000000e5
:1014080000000000000000000000000000000000d4
:1014180000000000000000000000000000000000c4
:10168800dc380000200000008200000052534900ae
:1016980044442e0053415200455354004d2e4700f8
:1016a80053534300544c520042574300544952008c
:1016b800495442005242000014390000140000004e
:1016c8008200000012120100000200000000400029
:1016d80000000100000100000204060001000000f3
:1016e800ce25000030000000820000002e09020014
:1016f8002e000100010080003209040000000400ef
:10170800ff000000000705008103400000050700f6
:1017180005010300400005000705820002400000a3
:1017280000070500020240000000000054390000d4
:1017380006000000820000000404030009080000fd
:10174800fc38000018000000820000001616030094
:101758004a006f00006800006e002000005300007f
:1017680063006f00007400007400000096250000fc
:101778003800000082000000363603005200650081
:1017880000730000700069000072000061007400be
:10179800006f000072007900002000004400610022
:1017a8000074000061002000004300006f006c001e
:1017b800006c000065006300007400006f00720098
:1017c800000000003c3900000c000000820000000e
:1017d8000a0a0300520045000053000050000000b0
:1017e800ba380000220000008200000021050f0026
:1017f800210001001c100500009f8a00649e9d00c6
:1018080065d29c00c74c890045df6000ddd8000028
:101818000003060000000e00000000002839000048
:101828001400000082000000121203004d00530053
:1018380000460000540031000030000030000d0068
:1018480000000000903800002a000000820000001c
:10185800282800000000000001040000010000002a
:101868000000000000000000015749004e555300d9
:10187800420000000000000000000000000000001e
:101888000000000000000000003800009000000088
:10189800820000008e8e000000000000010500009c
:1018a8000100840000000000010000000028000082
:1018b80044006500007600006900630000650000d0
:1018c80049006e00007400006500720000660000a8
:1018d80061006300006500004700550000490000f2
:1018e80044000000004e000000007b0000410000a2
:1018f8004200430000440000450046000045000047
:1019080044002d0000410000420043000044000054
:101918002d0044000043000042004100002d00005b
:10192800440043000042000041002d000041000037
:101938004200430000440000450046000045000006
:10194800440043000042000041004200007d0000c6
:1019580000000000003000000004000082000000c9
:10196800000000000000000000000000000000006f
:10197800000000000000000000000000000000005f
:10198800000000000000000000000000000000004f
:10199800000000000000000000000000000000003f
:101eb80000000000000000000034000000040000e2
:101ec8008200000000000000000000000000000088
:101ed80000000000000000000000000000000000fa
:101ee80000000000000000000000000000000000ea
:101ef80000000000000000000000000000000000da
:101f080000000000000000000000000000000000c9
:102418000000000000000000000000009013000011
:10242800020000008200000000000000001200000e
:102438000801000082000000000000000000000009
:102448000000000000000000000000000000000084
:102458000000000000000000000000000000000074
:102468000000000000000000000000000000000064
:102478000000000000000000000000000000000054
:102488000000000000000000000000000000000044
:102498000000000000000000000000000000000034
:1024a8000000000000000000000000000000000024
:1024b8000000000000000000000000000000000014
:1024c8000000000000000000000000000000000004
:1024d80000000000000000000000000000000000f4
:1024e80000000000000000000000000000000000e4
:1024f80000000000000000000000000000000000d4
:1025080000000000000000000000000000000000c3
:1025180000000000000000000000000000000000b3
:1025280000000000000000000000000000000000a3
:102538000000000000000000000000000000000093
:102548000000000000000000000000000000000083
:102558000000000000000000000000000000000073
:102568000000000000000000000000000000000063
:102578000000000000000000000000000000000053
:102588000000000000000000000000000000000043
:10259800000000000000000092130000020000008c
:1025a80082000000002600002c130000220000001a
:1025b8008200000000000000000000000000000091
:1025c8000000000000000000000000000000000003
:1025d80000000000000000000000000000000000f3
:1025e800000000004e1300001400000082000000ec
:1025f8000000000000000000000000003000300073
:1026080000000000000034000034000062130000e5
:10261800140000008200000000000000000000001c
:1026280000000000280028000000000000002c0026
:10263800002c000096130000001200008200000029
:102648000000000000000000000000000000000082
:102658000000000000000000000000000000000072
:102668000000000000000000000000000000000062
:102678000000000000000000000000000000000052
:102688000000000000000000000000000000000042
:102698000000000000000000000000000000000032
:1026a8000000000000000000000000000000000022
:1026b8000000000000000000000000000000000012
:1026c8000000000000000000000000000000000002
:1026d80000000000000000000000000000000000f2
:1026e80000000000000000000000000000000000e2
:1026f80000000000000000000000000000000000d2
:1027080000000000000000000000000000000000c1
:1027180000000000000000000000000000000000b1
:1027280000000000000000000000000000000000a1
:102738000000000000000000000000000000000091
:102748000000000000000000000000000000000081
:102758000000000000000000000000000000000071
:102768000000000000000000000000000000000061
:102778000000000000000000000000000000000051
:102788000000000000000000000000000000000041
:1027980000000000001439000000000000000000e4
:1027a8000000000000000000000000000000000021
:1027b8000000000000000000000000000000000011
:1027c8000000000000000000000000000000000001
:1027d80000000000000000000000000000000000f1
:1027e80000000000000000000000000000000000e1
:1027f80000000000000000000000000000000000d1
:1028080000000000000000000000000000000000c0
:1028180000000000000000000000000000000000b0
:1028280000000000000000000000000000000000a0
:102838000000000000000000000000000000000090
:102848000000000000000000000000000000000080
:102858000000000000000000000000000000000070
:102868000000000000000000000000000000000060
:102878000000000000000000000000000000000050
:102888000000000000000000000000000000000040
:102898000000000000000000000000000000000030
:1028a8000000000000000000000000000000000020
:1028b8000000000000000000000000000000000010
:1028c8000000000000000000000000000000000000
:1028d80000000000000000000000000000000000f0
:1028e80000000000000000000000ce0025000000ed
:1028f80000000000000000000000000000000000d0
:1029080000000000000000000000000000000000bf
:1029180000000000000000000000000000000000af
:10292800000000000000000000000000000000009f
:10293800000000000000000000000000000000008f
:10294800000000000000000000000000000000007f
:10295800000000000000000000000000000000006f
:10296800000000000000000000000000000000005f
:10297800000000000000000000000000000000004f
:10298800000000000000000000000000000000003f
:10299800000000000000000000000000000000002f
:1029a800000000000000000000000000000000001f
:1029b800000000000000000000000000000000000f
:1029c80000000000000000000000000000000000ff
:1029d80000000000000000000000000000000000ef
:1029e80000000000000000000000000000000000df
:1029f80000000000000000000000000000000000cf
:102a080000000000000000000000000000000000be
:102a180000000000000000000000000000000000ae
:102a2800000000000000000000000000000000009e
:102a3800000000000000000000000000000000008e
:102a48005439fc00389625003c390000000000008d
:102a5800000000000000000000000000000000006e
:102a6800000000000000000000000000000000005e
:102a7800000000000000000000000000000000004e
:102a8800000000000000000000000000000000003e
:102a9800000000000000000000000000000000002e
:102aa800000000000000000000000000000000001e
:102ab800000000000000000000000000000000000e
:102ac80000000000000000000000000000000000fe
:102ad80000000000000000000000000000000000ee
:102ae80000000000000000000000000000000000de
:102af80000000000000000000000000000000000ce
:102b080000000000000000000000000000000000bd
:102b180000000000000000000000000000000000ad
:102b2800000000000000000000000000000000009d
:102b3800000000000000000000000000000000008d
:102b4800000000000000000000000000000000007d
:102b5800000000000000000000000000000000006d
:102b6800000000000000000000000000000000005d
:102b780000000000000000000000000000283900ec
:102b8800000000000000000000000000000000003d
:102b9800000000000000000000000000000000002d
:102ba800000000000000000000000000000000001d
:102bb800000000000000000000000000000000000d
:102e48000200000000000000000000000000000078
:102e5800000000000000000000000000000000006a
:102e6800000000000000000000000000000000005a
:102e7800000000000000000000000000000000004a
:102e8800000000000000000000000000000000003a
:102e9800000000000000000000000000000000002a
:102ea800000000000000000000000000000000001a
:102eb800000000000000000000000000000000000a
:102ec80000000000000000000000000000000000fa
:102ed80000000000000000000000000000000000ea
:102ee80000000000000000000000000000000000da
:102ef80000000000000000000000000000000000ca
:102f080000000000000000000000000000000000b9
:102f180000000000000000000000000000000000a9
:102f28000000000000000000000000000000000099
:102f38000000000000000000000000000000000089
:102f48000000000000000000000000000000000079
:102f58000000000000000000000000000000000069
:102f68000000000000000000000000000000000059
:102f78000000000000000000000000000000000049
:102f88000000000000000000000000000000000039
:102f98000000000000020000000000000000000027
:102fa8000000000000000000000000000000000019
:102fb8000000000000000000000000000000000009
:102fc80000000000000000000000000000000000f9
:102fd80000000000000000000000000000000000e9
:102fe80000000000000000000000000000000000d9
:102ff80000000000000000000000000000000000c9
:1030080000000000000000000000000000000000b8
:1030180000000000000000000000000000000000a8
:103028000000000000000000000000000000000098
:103038000000000000000000000000000000000088
:103048000000000000000000000000000000000078
:103058000000000000000000000000000000000068
:103068000000000000000000000000000000000058
:103078000000000000000000000000000000000048
:103088000000000000000000000000000000000038
:103098000000000000000000000000000000000028
:1030a8000000000000000000000000000000000018
:1030b8000000000000000000000000000000000008
:1030c80000000000000000000000000000000000f8
:1030d80000000000000000000000000000000000e8
:1030e80000000000000000000000020000000000d6
:1030f80000000000000000000000000000000000c8
:1031080000000000000000000000000000000000b7
:1031180000000000000000000000000000000000a7
:103128000000000000000000000000000000000097
:103648000200000000000000000000000000000070
:103658000000000000000000000000000000000062
:103668000000000000000000000000000000000052
:103678000000000000000000000000000000000042
:103688000000000000000000000000000000000032
:103698000000000000000000000000000000000022
:1036a8000000000000000000000000000000000012
:1036b8000000000000000000000000000000000002
:1036c80000000000000000000000000000000000f2
:1036d80000000000000000000000000000000000e2
:1036e80000000000000000000000000000000000d2
:1036f80000000000000000000000000000000000c2
:1037080000000000000000000000000000000000b1
:1037180000000000000000000000000000000000a1
:103728000000000000000000000000000000000091
:103738000000000000000000000000000000000081
:103748000000000000000000000000000000000071
:103758000000000000000000000000000000000061
:103768000000000000000000000000000000000051
:103778000000000000000000000000000000000041
:103788000000000000000000000000000000000031
:10379800000000000002000000000000000000001f
:1037a8000000000000000000000000000000000011
:1037b8000000000000000000000000000000000001
:1037c80000000000000000000000000000000000f1
:1037d80000000000000000000000000000000000e1
:1037e80000000000000000000000000000000000d1
:1037f80000000000000000000000000000000000c1
:1038080000000000000000000000000000000000b0
:1038180000000000000000000000000000000000a0
:103828000000000000000000000000000000000090
:103838000000000000000000000000000000000080
:103848000000000000000000000000000000000070
:103858000000000000000000000000000000000060
:103868000000000000000000000000000000000050
:103878000000000000000000000000000000000040
:103888000000000000000000000000000000000030
:103898000000000000000000000000000000000020
:1038a8000000000000000000000000000000000010
:1038b8000000000000000000000000000000000000
:1038c80000000000000000000000000000000000f0
:1038d80000000000000000000000000000000000e0
:1038e80000000000000000000000020000000000ce
:1038f80000000000000000000000000000000000c0
:1039080000000000000000000000000000000000af
:10391800000000000000000000000000000000009f
:10392800000000000000000000000000000000008f
:10393800000000000000000000000000000000007f
:10394800000000000000000000000000000000006f
:10395800000000000000000000000000000000005f
:10396800000000000000000000000000000000004f
:10397800000000000000000000000000000000003f
:10398800000000000000000000000000000000002f
:10399800000000000000000000000000000000001f
:1039a800000000000000000000000000000000000f
:1039b80000000000000000000000000000000000ff
:1039c80000000000000000000000000000000000ef
:1039d80000000000000000000000000000000000df
:1039e80000000000000000000000000000000000cf
:1039f80000000000000000000000000000000000bf
:103a080000000000000000000000000000000000ae
:103a1800000000000000000000000000000000009e
:103a2800000000000000000000000000000000008e
:103a3800000000000000000000000000000000007e
:103a4800ba3800000000000000000000000000007c
:103a5800000000000000000000000000000000005e
:103a6800000000000000000000000000000000004e
:103a7800000000000000000000000000000000003e
:103a8800000000000000000000000000000000002e
:103a9800000000000000000000000000000000001e
:103aa800000000000000000000000000000000000e
:103ab80000000000000000000000000000000000fe
:103ac80000000000000000000000000000000000ee
:103ad80000000000000000000000000000000000de
:103ae80000000000000000000000000000000000ce
:103af80000000000000000000000000000000000be
:103b080000000000000000000000000000000000ad
:103b1800000000000000000000000000000000009d
:103b2800000000000000000000000000000000008d
:103b3800000000000000000000000000000000007d
:103b4800000000000000000000000000000000006d
:103b5800000000000000000000000000000000005d
:103b6800000000000000000000000000000000004d
:103b7800000000000000000000000000000000003d
:103b8800000000000000000000000000000000002d
:103b9800000000000002000000000000000000001b
:103ba800000000000000000000000000000000000d
:103bb80000000000000000000000000000000000fd
:103bc80000000000000000000000000000000000ed
:103bd80000000000000000000000000000000000dd
:103be80000000000000000000000000000000000cd
:103bf80000000000000000000000000000000000bd
:103c080000000000000000000000000000000000ac
:103c1800000000000000000000000000000000009c
:103c2800000000000000000000000000000000008c
:103c3800000000000000000000000000000000007c
:103c4800000000000000000000000000000000006c
:103c5800000000000000000000000000000000005c
:103c6800000000000000000000000000000000004c
:103c7800000000000000000000000000000000003c
:103c8800000000000000000000000000000000002c
:103c9800000000000000000000000000000000001c
:103ca800000000000000000000000000000000000c
:103cb80000000000000000000000000000000000fc
:103cc80000000000000000000000000000000000ec
:103cd80000000000000000000000000000000000dc
:103ce80000000000000000000000020000000000ca
:103cf80000000000000000000000000000000000bc
:103d080000000000000000000000000000000000ab
:103d1800000000000000000000000000000000009b
:103d2800000000000000000000000000000000008b
:103d3800000000000000000000000000000000007b
:103d4800000000000000000000000000000000006b
:103d5800000000000000000000000000000000005b
:103d6800000000000000000000000000000000004b
:103d7800000000000000000000000000000000003b
:103d8800000000000000000000000000000000002b
:103d9800000000000000000000000000000000001b
:103da800000000000000000000000000000000000b
:103db80000000000000000000000000000000000fb
:103dc80000000000000000000000000000000000eb
:103dd80000000000000000000000000000000000db
:103de80000000000000000000000000000000000cb
:103df80000000000000000000000000000000000bb
:103e080000000000000000000000000000000000aa
:103e1800000000000000000000000000000000009a
:103e2800000000000000000000000000000000008a
:103e3800000000000000000000000000000000007a
:103e4800483900000c000000820000000000020059
:103e580000000000000090003800380094130000b3
:103e680002000000820000000000000030298000ed
:020000040000fa
:103e7800a08e23008000eb00904090001041780055
:103e88004811dd0002834000ab030700059880005d
:103e9800050090000030a0000010a00080029800eb
:103ea800c13221002198880024002000349888001d
:103eb8002c0137003f01370062013700b903370092
:103ec800b8033700b7033700b6033700b503370028
:103ed800b4033700208e23008000eb009040900050
:103ee800104178004811dd0002834000920307006a
:103ef80005988000050090000020a000800298002e
:103f0800e883420017009000109888006c01370081
:103f1800109880006026880073013700059880009b
:103f2800050090000030a0000010a000800298005a
:103f3800e88342001700900061392100038e2300b6
:103f48000002eb00134278004822dd000303200042
:103f58004804de0003014400020342007603070020
:103f68000100400090007800220020001208e700bd
:103f78004a0037008100e800219888008100e900a4
:103f88000002eb001142780034988800f5003700f1
:103f9800080137002b0137008203370081033700ff
:103fa800800337007f0337007e0337007d03370027
:103fb800c08e23008000eb009040900010417800f4
:103fc8004811dd00028340005b030700059880006c
:103fd800050090000020a00080029800d001200079
:103fe8001027880020278800350137003e01370058
:103ff8006c0337006b0337006a0337006903370027
:104008006803370067033700660337006503370026
:104018006403370005988000050090000030a00078
:104028000010a00080029800e8834200270090005a
:10403800838e23000002eb00134278004822dd0043
:104048000303200003014000020342003a03070073
:104058004100dd00819423000100400090007800b9
:10406800220020001208e7000c0037008100e80059
:10407800219888008100e9000002eb0011427800d5
:1040880034988800b7003700ca003700ed003700c1
:10409800440337004303370042033700408e2300b0
:1040a8008000eb0090409000104178004811dd003e
:1040b800028340002003070005988000829c80004e
:1040c800400c2000000998001000200010099800fa
:1040d800050090000000a1000010a1000020a10030
:1040e8000030a1000040a100800298001500900057
:1040f8000000eb0090029800000820000104200056
:1041080000019800110198000000060025033700ff
:10411800e08e23008000eb00904090001041780072
:104128004811dd0002834000030307000598800062
:10413800050090000020a00080029800e88342005b
:1041480017009000110020002100e700ac020700d2
:1041580012003700210020002100e700a402070018
:104168000e003700310020002100e7009c02070004
:104178000a003700410020002100e700a2020700e2
:1041880006003700510020002100e7009a020700ce
:10419800020037006100200093020700c8003700c2
:1041a800d100370005988000050090000030a0007d
:1041b8000010a00080029800e8834200068f2300c8
:1041c800dd020700d4020700413921000000000089
:1041d8000000000000000000219888001400200062
:1041e800349888005f003700720037000000000034
:1041f800000000000000000092003700208f23001c
:104208008000eb0090409000104178004811dd00dc
:1042180002834000c802070005988000050090004e
:104228000020a00080029800e88342001700900058
:10423800b39b80008009780041030700a000370085
:04424800a900370092
:020000040000fa
:10424c000aff37001aff37001aff3700ce0237007b
:10425c0019ff370019ff370019ff3700ca02370062
:10426c00c9023700c8023700c7023700c602370040
:10427c0014ff370014ff370014ff3700c202370059
:10428c00c1023700c0023700bf023700be02370040
:10429c000fff3700bc0237001cff3700ba02370093
:1042ac001dff370039ff370039ff3700b6023700e2
:1042bc0038ff370038ff370038ff3700b2023700bd
:1042cc0037ff370037ff370037ff3700ae023700b4
:1042dc0036ff3700ac02370043ff3700aa02370025
:1042ec0042ff370042ff370042ff3700a60237007b
:1042fc0041ff370041ff370041ff3700a202370072
:10430c0040ff370040ff370040ff37009e02370068
:10431c003fff37005bff37005bff37009a02370027
:10432c005aff37005aff37005aff37009602370002
:10433c0076ff37009402370098ff3700920237005f
:10434c00adff370090023700bcff37008e023700fc
:10435c0093ff3700a3ff3700a3ff37008a02370013
:10436c00829c8000219880002109980037009000e1
:10437c003498800020a0e60010a0e7000100370070
:10438c000400780090029800010420002008e60048
:10439c001088e7000100780010099800000c20003c
:1043ac00850090008102980000099800000006002a
:1043bc000598800015009000829c80009208900067
:1043cc002100e6005181e700710237000100500026
:1043dc0090029800120a9000010420002008e600c8
:1043ec001088e7000100780010099800220890005e
:1043fc000400400020099800020a90000460a2000a
:10440c000470a00033fc2f00048261008500900032
:10441c0081029800040998000000060001082000a1
:10442c000304200092089000050090000010a100e9
:10443c000040a0000020a0008002980000000600b0
:10444c0005988000050090000040a600510237003e
:10445c00829c8000020090000060a6004f02370092
:10446c0012009000010020001180e7004a02370082
:10447c00050090000000a1000010a1000020a10088
:10448c000030a1000040a1008002980015009000af
:10449c000000eb00900298000008200001042000ae
:1044ac00000198001101980000002000010020007c
:1044bc00000998001109980000000600000820006f
:1044cc0001042000829c80000001980011019800da
:1044dc00000c200001002000000998001109980030
:1044ec000000060005988000050090000040a70021
:1044fc0028023700829c8000020890000060a60011
:10450c002602370012089000010020001180e700fd
:10451c0021023700050090000000a1000010a1004e
:10452c000020a1000030a1000040a10080029800f2
:10453c00150090000000eb0090029800000820008d
:10454c0000019800000420001001980000002000d9
:10455c0000099800000020001009980000000600d7
:020000040000fa
:10456c000020210041268000010fb2000100400014
:10457c00209b8800879c8000c864ae002200370016
:10458c00808f23008000eb00904090001041780059
:10459c004811dd0002834000e6010700409b8000cb
:1045ac00810020001180e60003023700469b80004a
:1045bc00e00107002b000700509b8000a00b980027
:1045cc00409b8000010020001100e6000300370032
:1045dc000000370001082000030037000100200014
:1045ec006613a90000003700259b80003500900061
:1045fc000030a2000030a7000160a000b0029800bb
:10460c00810b980000000600a08f23008000eb00b7
:10461c0090409000104178004811dd00028340006a
:10462c00c4010700809b8000810020001180e600ff
:10463c00e2013700869b8000be01070023000700c3
:10464c00909b8000a0039800010020006e13a9002d
:10465c00259b800035009000b002980081039800e3
:10466c000000060000a0fe00409b80000000e90056
:10467c00409b8800509b80000104200001004000fa
:10468c00f03fb2000180220001004000509b8800e6
:10469c000080fe000000060000a0fe00409b800091
:1046ac000000e800409b8800609b80000104200013
:1046bc0001004000f03fb2000180220001004000e8
:1046cc00609b88000080fe000000060000a0fe0039
:1046dc00809b80000000e800809b8800909b8000fd
:1046ec000104200001004000f03fb20001c0220094
:1046fc0001004000909b88000080fe000000060036
:10470c0000a0fe00809b80000000e900809b8800d8
:10471c00a09b80000104200001004000f03fb2008b
:10472c0001c0220001004000a09b88000080fe0018
:10473c000000060000a0fe006613af000500370065
:10474c0007042100070890000070a000800b98005f
:10475c006613a8000080fe000000060000a0fe000a
:10476c006e13af000500370007042100070090000e
:10477c000070a000800398006e13a8000080fe005b
:10478c000000060000a0fe000704210007009000b6
:10479c000070a100800398006e13a9000080fe0039
:1047ac00000006000020210041268000010fb2000d
:1047bc0001004000809a8800879c8000c864ae008d
:1047cc0022003700408f23008000eb0090409000c7
:1047dc00104178004811dd000283400055010700ac
:1047ec00a09a8000010420001180e60070013700bf
:1047fc00a69a80004f0107002a000700b09a80009b
:10480c00a00b9800a09a8000010020001100e60087
:10481c0003003700000037000108200003003700b8
:10482c00010020005213a90000003700859a800077
:10483c00250090000030a2000030a7000160a0000d
:10484c00a0029800810b980000000600608f2300e6
:10485c008000eb0090409000104178004811dd0082
:10486c000283400033010700e09a8000010420001d
:10487c001180e6004f013700e69a80002d010700f9
:10488c0020000700f09a8000a00398000108200087
:10489c00859a800025009000a00298008103980062
:1048ac000000060000a0fe00a09a80000000e900b5
:1048bc00a09a8800b09a800068004000f03fb200d7
:1048cc000100230001004000b09a88000080fe0027
:1048dc000000060000a0fe00a09a80000000e80086
:1048ec00a09a8800c09a800068004000f03fb20097
:1048fc000100230001004000c09a88000080fe00e7
:10490c000000060000a0fe00e09a80000000e80015
:10491c00e09a8800f09a800068004000f03fb200f6
:10492c000140230001004000f09a88000080fe0046
:10493c000000060000a0fe00e09a80000000e900e4
:10494c00e09a8800009b800068004000f03fb200b5
:10495c000140230001004000009b88000080fe0005
:10496c000000060000a0fe005213af000500370047
:10497c0007022100070890000070a000800b98002f
:10498c005213a8000080fe000000060000a0fe00ec
:10499c005a13af00050037000702210007009000f2
:1049ac000070a000800398005a13a8000080fe003d
:1049bc00000006007c33a80070998800819988005b
:1049cc0092998800a3998800b4998800c5998800a9
:1049dc00d6998800e7998800f8998800099a880088
:1049ec001a9a88002b9a88003c9a88004d9a880065
:1049fc005e9a88006f9a88000ac8ae00da00370009
:104a0c00c024ae0022003700c404ae000100370001
:104a1c00ffff3700c424ae0001003700ffff370052
:104a2c00c444ae0001003700ffff3700c464ae0081
:104a3c0001003700ffff3700c484ae0006003700ca
:104a4c00c484a80000000000c024a80000000000de
:104a5c000ac8a90047003700c4a4ae0006003700fe
:104a6c00c4a4a80000000000c024a800000000009e
:104a7c000ac8a9003f003700c4c4ae0001003700cb
:104a8c00ffff3700c4e4ae00b8003700ffff37006b
:104a9c00c004ae000d003700c004a8000ac8a9006d
:104aac000ac8af00fdff3700cc24ef00c08d2300f7
:104abc008000eb0090409000104178004811dd0020
:104acc00028340009b0007002a003700c064ae0040
:104adc00050037005a010700c064a8000000000060
:104aec000ac8a90023003700c084ae000c003700b0
:104afc00c084a8000ac8a9000ac8af00fdff37008f
:104b0c00e08d23008000eb00904090001041780075
:104b1c004811dd00028340008600070015003700b5
:104b2c00c0a4ae000600370000000000000000002a
:104b3c0000000000c0a4a8000ac8a9000d0037009e
:104b4c00c0e4ae008a003700c0e4a80000000000fa
:104b5c000ac8a900608e23008000eb0090409000f2
:104b6c00104178004811dd000283400071000700fd
:104b7c000000370070998000819980009299800024
:104b8c00a3998000b4998000c5998000d6998000c3
:104b9c00e7998000f8998000099a80001a9a8000a1
:104bac002b9a80003c9a80004d9a80005e9a80007f
:104bbc006f9a80007c33a900004006003e2eef0067
:104bcc00300ea900302ea900304ea90030cea8001e
:104bdc0030eea80031aea80000000600344ea8004c
:104bec0000000600344ea90000000600342ea80078
:104bfc0000000600342ea90000000600340ea800a8
:104c0c0000000600340ea900000006000200080097
:104c1c000c000000344ea800e8030800020000005d
:104c2c00b80b09000000000000000000344ea90081
:104c3c00b80b080002000000b80b090000000000cf
:104c4c000000000000000000000006000200080048
:104c5c000c000000342ea800e8030800020000003d
:104c6c00b80b09000000000000000000342ea90061
:104c7c00b80b080002000000b80b0900000000008f
:104c8c000000000000000000000006000200080008
:104c9c000c000000340ea800e8030800020000001d
:104cac00b80b09000000000000000000340ea90041
:104cbc00b80b080002000000b80b0900000000004f
:104ccc0000000000000000000000060002000800c8
:104cdc000e000000342ea800344ea800e803080093
:104cec0002000000b80b09000000000000000000ea
:104cfc00342ea900344ea900b80b080002000000a5
:104d0c00b80b0900000000000000000000000000cb
:104d1c00000006009433ef0032ceaf009413a800cd
:104d2c0032eeaf009433a80033aeaf009453a8001a
:104d3c000000060000a0fe00909c80000608780091
:104d4c000080e800f01fb20001602200010040006a
:104d5c00909c8800017d20001208e70000000000f4
:104d6c000080fe0000000600ffff3700ffff370049
:104d7c00ffff3700ffff3700ffff3700ffff370053
:104d8c00ffff3700ffff3700ffff3700ffff370043
:104d9c00ffff3700ffff3700ffff3700ffff370033
:104dac00ffff3700ffff3700ffff3700ffff370023
:104dbc00ffff3700ffff3700ffff3700ffff370013
:104dcc00ffff3700ffff3700ffff3700ffff370003
:104ddc0023000700ffff370021000700ffff37000b
:104dec001f000700ffff37001d000700ffff370003
:104dfc001b000700ffff370019000700ffff3700fb
:104e0c0017000700ffff370015000700ffff3700f2
:104e1c0013000700ffff370011000700ffff3700ea
:104e2c000f000700ffff37000d000700ffff3700e2
:104e3c000b000700ffff370009000700ffff3700da
:104e4c0007000700ffff370005000700ffff3700d2
:104e5c0003000700ffff370001000700ffff3700ca
:104e6c002de1a90013e1a90000000600ffff3700a7
:104e7c00ffff3700ffff370000032000303a8800a7
:104e8c0000042300203a88003000200031742000f8
:104e9c0082072000a309200082487800834878000c
:104eac0080487800217420006204200073052000e3
:104ebc0082487800834878004207a8004207af0078
:104ecc00feff3700000006007c33af000000060038
:104edc00d09b8000010020001100e70000000600bc
:104eec00c09b80009001780020000700e092220017
:104efc0083014000e88757001f00a7000300a000b3
:104f0c001f00900001f82f0001006000831f780043
:104f1c00801f7800e4874700509980000000e8006b
:104f2c0050998800310020001100e70000000000bb
:104f3c0000000000000000000000060000a0fe00c1
:104f4c00b09b80000080e800f000b2000138210026
:104f5c0001004000b09b8800d09b80000000e8005e
:104f6c00d09b88000080fe000000060000a0fe0020
:104f7c00c09b80000080e800f000b20001382100e6
:104f8c0001004000c09b8800d09b80000000e9001d
:104f9c00d09b88000080fe0000000600002021004d
:104fac0041268000010fb2000100400000988800eb
:104fbc00000190000200a7000d0037000200a000c5
:104fcc0002009800e8004000839c800023029000bf
:104fdc000300080001000000b41878000000000075
:104fec0004082000819c8000840098000600370093
:104ffc000210a60001003700030037000220a600b3
:10500c0060ff3700000037008001eb0068004000b3
:10501c0090419000c319dd000210a7000310a000fe
:10502c000220a7000320a000601222008301400090
:10503c0000002000831f7800801f7800000006000d
:10504c00422680004110dd000100210001004000db
:10505c0003fe2f0080806100819c88004026800028
:10506c00000fb200010020005180e7000101200078
:10507c003181e700010220003181e70050ff370049
:10508c0000202100020fb200020140000202900039
:10509c000400a60002003700c0ff07000c00370018
:1050ac00809c800080009000c208de00f100b200fd
:1050bc00d20020008208e700b8ff07000400370088
:1050cc00b8fd07000200370025fd0700000037007f
:1050dc00caa4a900000006000000000000000000a7
:1050ec0000000000104c2200c03a88007000200024
:1050fc00d03a880059e7a80059c7ae00feff370028
:10510c009004a800b00b200010268800f00f20009f
:10511c003026880000002000e0268800f026880059
:10512c0000002100f01fb200010020001180e700f8
:10513c0010ff3700000021004800de0070268800b8
:10514c0000002000c026880000002000d026880027
:10515c002000200050268800d00020000027880066
:10516c000000200060998800000006000050240018
:10517c00504388002ac8a800ca04a80000000600f2
:10518c0050988800619888007298880083988800ed
:10519c0094988800a5988800b6988800c7988800cd
:1051ac00d8988800e9988800fa9888000b998800ac
:1051bc001c9988002d9988003e9988004f99880089
:1051cc0041ff07000068a90050988000619880009a
:1051dc00729880008398800094988000a598800035
:1051ec00b6988000c7988000d8988000e998800015
:1051fc00fa9880000b9980001c9980002d998000f2
:10520c003e9980004f998000004006006bfe07001d
:10521c0019ff0700b3ff0700d4ff07007bfe070050
:10522c00ffff3700ffff3700ffff3700ffff37009e
:10523c00ffff3700ffff3700ffff370000000000c3
:10524c000000000000000000ffff3700ffff3700e8
:020000040000fa
:04525c0068eb3700c4
:020000040000fa
:04526000000000004a
:020000040000fa
:0200000401f009
:04000800cfff000026
:020000040000fa
:0200000401f009
:04000c00faff0000f7
:020000040000fa
:0200000401f009
:040010005dff000090
:020000040000fa
:0200000401f009
:040014007fff00006a
:020000040000fa
:0200000401f009
:04001800efff0000f6
:020000040000fa
:0200000401f009
:04001c00dfff000002
:020000040000fa
:0200000401f009
:04002000cfff00000e
:00000001FF
